{"contracts/Hero.sol":{"Hero":{"abi":[{"inputs":[],"name":"alert","outputs":[],"stateMutability":"nonpayable","type":"function"},{"inputs":[],"name":"alerted","outputs":[{"internalType":"bool","name":"","type":"bool"}],"stateMutability":"view","type":"function"}],"evm":{"bytecode":{"linkReferences":{},"object":"608060405234801561001057600080fd5b5060ee8061001f6000396000f3fe6080604052348015600f57600080fd5b506004361060325760003560e01c8063410b45a514603757806376d66fdb146051575b600080fd5b603d6059565b604051604891906093565b60405180910390f35b6057606a565b005b60008054906101000a900460ff1681565b60016000806101000a81548160ff021916908315150217905550565b608d8160ac565b82525050565b600060208201905060a660008301846086565b92915050565b6000811515905091905056fea2646970667358221220d343af0f0ce59d64da663b7098c3020dee34173b74cb3960f27d5313358e3cca64736f6c63430008040033","opcodes":"PUSH1 0x80 PUSH1 0x40 MSTORE CALLVALUE DUP1 ISZERO PUSH2 0x10 JUMPI PUSH1 0x0 DUP1 REVERT JUMPDEST POP PUSH1 0xEE DUP1 PUSH2 0x1F PUSH1 0x0 CODECOPY PUSH1 0x0 RETURN INVALID PUSH1 0x80 PUSH1 0x40 MSTORE CALLVALUE DUP1 ISZERO PUSH1 0xF JUMPI PUSH1 0x0 DUP1 REVERT JUMPDEST POP PUSH1 0x4 CALLDATASIZE LT PUSH1 0x32 JUMPI PUSH1 0x0 CALLDATALOAD PUSH1 0xE0 SHR DUP1 PUSH4 0x410B45A5 EQ PUSH1 0x37 JUMPI DUP1 PUSH4 0x76D66FDB EQ PUSH1 0x51 JUMPI JUMPDEST PUSH1 0x0 DUP1 REVERT JUMPDEST PUSH1 0x3D PUSH1 0x59 JUMP JUMPDEST PUSH1 0x40 MLOAD PUSH1 0x48 SWAP2 SWAP1 PUSH1 0x93 JUMP JUMPDEST PUSH1 0x40 MLOAD DUP1 SWAP2 SUB SWAP1 RETURN JUMPDEST PUSH1 0x57 PUSH1 0x6A JUMP JUMPDEST STOP JUMPDEST PUSH1 0x0 DUP1 SLOAD SWAP1 PUSH2 0x100 EXP SWAP1 DIV PUSH1 0xFF AND DUP2 JUMP JUMPDEST PUSH1 0x1 PUSH1 0x0 DUP1 PUSH2 0x100 EXP DUP2 SLOAD DUP2 PUSH1 0xFF MUL NOT AND SWAP1 DUP4 ISZERO ISZERO MUL OR SWAP1 SSTORE POP JUMP JUMPDEST PUSH1 0x8D DUP2 PUSH1 0xAC JUMP JUMPDEST DUP3 MSTORE POP POP JUMP JUMPDEST PUSH1 0x0 PUSH1 0x20 DUP3 ADD SWAP1 POP PUSH1 0xA6 PUSH1 0x0 DUP4 ADD DUP5 PUSH1 0x86 JUMP JUMPDEST SWAP3 SWAP2 POP POP JUMP JUMPDEST PUSH1 0x0 DUP2 ISZERO ISZERO SWAP1 POP SWAP2 SWAP1 POP JUMP INVALID LOG2 PUSH5 0x6970667358 0x22 SLT KECCAK256 0xD3 NUMBER 0xAF 0xF 0xC 0xE5 SWAP14 PUSH5 0xDA663B7098 0xC3 MUL 0xD 0xEE CALLVALUE OR EXTCODESIZE PUSH21 0xCB3960F27D5313358E3CCA64736F6C634300080400 CALLER "},"methodIdentifiers":{"alert()":"76d66fdb","alerted()":"410b45a5"}}}}}