{"contracts/Hero.sol":{"HeroSig":{"abi":[{"stateMutability":"nonpayable","type":"fallback"},{"inputs":[{"internalType":"uint256","name":"enemies","type":"uint256"},{"internalType":"bool","name":"armed","type":"bool"}],"name":"alert","outputs":[],"stateMutability":"nonpayable","type":"function"},{"inputs":[],"name":"ambush","outputs":[{"internalType":"bool","name":"alerted","type":"bool"},{"internalType":"uint256","name":"enemies","type":"uint256"},{"internalType":"bool","name":"armed","type":"bool"}],"stateMutability":"view","type":"function"},{"inputs":[],"name":"lastContact","outputs":[{"internalType":"uint256","name":"","type":"uint256"}],"stateMutability":"view","type":"function"}],"evm":{"bytecode":{"linkReferences":{},"object":"608060405234801561001057600080fd5b506102a3806100206000396000f3fe608060405234801561001057600080fd5b50600436106100455760003560e01c80635165c5461461004f57806389434ea71461006d578063f59763e61461008957610046565b5b42600381905550005b6100576100a9565b604051610064919061020e565b60405180910390f35b6100876004803603810190610082919061017d565b6100af565b005b610091610121565b6040516100a0939291906101d7565b60405180910390f35b60035481565b60405180606001604052806001151581526020018381526020018215158152506000808201518160000160006101000a81548160ff0219169083151502179055506020820151816001015560408201518160020160006101000a81548160ff0219169083151502179055509050505050565b60008060000160009054906101000a900460ff16908060010154908060020160009054906101000a900460ff16905083565b6000813590506101628161023f565b92915050565b60008135905061017781610256565b92915050565b6000806040838503121561019057600080fd5b600061019e85828601610168565b92505060206101af85828601610153565b9150509250929050565b6101c281610229565b82525050565b6101d181610235565b82525050565b60006060820190506101ec60008301866101b9565b6101f960208301856101c8565b61020660408301846101b9565b949350505050565b600060208201905061022360008301846101c8565b92915050565b60008115159050919050565b6000819050919050565b61024881610229565b811461025357600080fd5b50565b61025f81610235565b811461026a57600080fd5b5056fea2646970667358221220d31382d2ee80388a8a4dc23a7ac905df4493db80d309a58f7f075693ac674a2064736f6c63430008040033","opcodes":"PUSH1 0x80 PUSH1 0x40 MSTORE CALLVALUE DUP1 ISZERO PUSH2 0x10 JUMPI PUSH1 0x0 DUP1 REVERT JUMPDEST POP PUSH2 0x2A3 DUP1 PUSH2 0x20 PUSH1 0x0 CODECOPY PUSH1 0x0 RETURN INVALID PUSH1 0x80 PUSH1 0x40 MSTORE CALLVALUE DUP1 ISZERO PUSH2 0x10 JUMPI PUSH1 0x0 DUP1 REVERT JUMPDEST POP PUSH1 0x4 CALLDATASIZE LT PUSH2 0x45 JUMPI PUSH1 0x0 CALLDATALOAD PUSH1 0xE0 SHR DUP1 PUSH4 0x5165C546 EQ PUSH2 0x4F JUMPI DUP1 PUSH4 0x89434EA7 EQ PUSH2 0x6D JUMPI DUP1 PUSH4 0xF59763E6 EQ PUSH2 0x89 JUMPI PUSH2 0x46 JUMP JUMPDEST JUMPDEST TIMESTAMP PUSH1 0x3 DUP2 SWAP1 SSTORE POP STOP JUMPDEST PUSH2 0x57 PUSH2 0xA9 JUMP JUMPDEST PUSH1 0x40 MLOAD PUSH2 0x64 SWAP2 SWAP1 PUSH2 0x20E JUMP JUMPDEST PUSH1 0x40 MLOAD DUP1 SWAP2 SUB SWAP1 RETURN JUMPDEST PUSH2 0x87 PUSH1 0x4 DUP1 CALLDATASIZE SUB DUP2 ADD SWAP1 PUSH2 0x82 SWAP2 SWAP1 PUSH2 0x17D JUMP JUMPDEST PUSH2 0xAF JUMP JUMPDEST STOP JUMPDEST PUSH2 0x91 PUSH2 0x121 JUMP JUMPDEST PUSH1 0x40 MLOAD PUSH2 0xA0 SWAP4 SWAP3 SWAP2 SWAP1 PUSH2 0x1D7 JUMP JUMPDEST PUSH1 0x40 MLOAD DUP1 SWAP2 SUB SWAP1 RETURN JUMPDEST PUSH1 0x3 SLOAD DUP2 JUMP JUMPDEST PUSH1 0x40 MLOAD DUP1 PUSH1 0x60 ADD PUSH1 0x40 MSTORE DUP1 PUSH1 0x1 ISZERO ISZERO DUP2 MSTORE PUSH1 0x20 ADD DUP4 DUP2 MSTORE PUSH1 0x20 ADD DUP3 ISZERO ISZERO DUP2 MSTORE POP PUSH1 0x0 DUP1 DUP3 ADD MLOAD DUP2 PUSH1 0x0 ADD PUSH1 0x0 PUSH2 0x100 EXP DUP2 SLOAD DUP2 PUSH1 0xFF MUL NOT AND SWAP1 DUP4 ISZERO ISZERO MUL OR SWAP1 SSTORE POP PUSH1 0x20 DUP3 ADD MLOAD DUP2 PUSH1 0x1 ADD SSTORE PUSH1 0x40 DUP3 ADD MLOAD DUP2 PUSH1 0x2 ADD PUSH1 0x0 PUSH2 0x100 EXP DUP2 SLOAD DUP2 PUSH1 0xFF MUL NOT AND SWAP1 DUP4 ISZERO ISZERO MUL OR SWAP1 SSTORE POP SWAP1 POP POP POP POP JUMP JUMPDEST PUSH1 0x0 DUP1 PUSH1 0x0 ADD PUSH1 0x0 SWAP1 SLOAD SWAP1 PUSH2 0x100 EXP SWAP1 DIV PUSH1 0xFF AND SWAP1 DUP1 PUSH1 0x1 ADD SLOAD SWAP1 DUP1 PUSH1 0x2 ADD PUSH1 0x0 SWAP1 SLOAD SWAP1 PUSH2 0x100 EXP SWAP1 DIV PUSH1 0xFF AND SWAP1 POP DUP4 JUMP JUMPDEST PUSH1 0x0 DUP2 CALLDATALOAD SWAP1 POP PUSH2 0x162 DUP2 PUSH2 0x23F JUMP JUMPDEST SWAP3 SWAP2 POP POP JUMP JUMPDEST PUSH1 0x0 DUP2 CALLDATALOAD SWAP1 POP PUSH2 0x177 DUP2 PUSH2 0x256 JUMP JUMPDEST SWAP3 SWAP2 POP POP JUMP JUMPDEST PUSH1 0x0 DUP1 PUSH1 0x40 DUP4 DUP6 SUB SLT ISZERO PUSH2 0x190 JUMPI PUSH1 0x0 DUP1 REVERT JUMPDEST PUSH1 0x0 PUSH2 0x19E DUP6 DUP3 DUP7 ADD PUSH2 0x168 JUMP JUMPDEST SWAP3 POP POP PUSH1 0x20 PUSH2 0x1AF DUP6 DUP3 DUP7 ADD PUSH2 0x153 JUMP JUMPDEST SWAP2 POP POP SWAP3 POP SWAP3 SWAP1 POP JUMP JUMPDEST PUSH2 0x1C2 DUP2 PUSH2 0x229 JUMP JUMPDEST DUP3 MSTORE POP POP JUMP JUMPDEST PUSH2 0x1D1 DUP2 PUSH2 0x235 JUMP JUMPDEST DUP3 MSTORE POP POP JUMP JUMPDEST PUSH1 0x0 PUSH1 0x60 DUP3 ADD SWAP1 POP PUSH2 0x1EC PUSH1 0x0 DUP4 ADD DUP7 PUSH2 0x1B9 JUMP JUMPDEST PUSH2 0x1F9 PUSH1 0x20 DUP4 ADD DUP6 PUSH2 0x1C8 JUMP JUMPDEST PUSH2 0x206 PUSH1 0x40 DUP4 ADD DUP5 PUSH2 0x1B9 JUMP JUMPDEST SWAP5 SWAP4 POP POP POP POP JUMP JUMPDEST PUSH1 0x0 PUSH1 0x20 DUP3 ADD SWAP1 POP PUSH2 0x223 PUSH1 0x0 DUP4 ADD DUP5 PUSH2 0x1C8 JUMP JUMPDEST SWAP3 SWAP2 POP POP JUMP JUMPDEST PUSH1 0x0 DUP2 ISZERO ISZERO SWAP1 POP SWAP2 SWAP1 POP JUMP JUMPDEST PUSH1 0x0 DUP2 SWAP1 POP SWAP2 SWAP1 POP JUMP JUMPDEST PUSH2 0x248 DUP2 PUSH2 0x229 JUMP JUMPDEST DUP2 EQ PUSH2 0x253 JUMPI PUSH1 0x0 DUP1 REVERT JUMPDEST POP JUMP JUMPDEST PUSH2 0x25F DUP2 PUSH2 0x235 JUMP JUMPDEST DUP2 EQ PUSH2 0x26A JUMPI PUSH1 0x0 DUP1 REVERT JUMPDEST POP JUMP INVALID LOG2 PUSH5 0x6970667358 0x22 SLT KECCAK256 0xD3 SGT DUP3 0xD2 0xEE DUP1 CODESIZE DUP11 DUP11 0x4D 0xC2 GASPRICE PUSH27 0xC905DF4493DB80D309A58F7F075693AC674A2064736F6C63430008 DIV STOP CALLER "},"methodIdentifiers":{"alert(uint256,bool)":"89434ea7","ambush()":"f59763e6","lastContact()":"5165c546"}}}}}