{
  "_format": "hh-sol-artifact-1",
  "contractName": "Countdown",
  "sourceName": "contracts/contract.sol",
  "abi": [
    {
      "inputs": [],
      "name": "i",
      "outputs": [
        {
          "internalType": "uint256",
          "name": "",
          "type": "uint256"
        }
      ],
      "stateMutability": "view",
      "type": "function"
    },
    {
      "inputs": [],
      "name": "tick",
      "outputs": [],
      "stateMutability": "nonpayable",
      "type": "function"
    }
  ],
  "bytecode": "0x60806040526000805534801561001457600080fd5b50610188806100246000396000f3fe608060405234801561001057600080fd5b50600436106100365760003560e01c80633eaf5d9f1461003b578063e5aa3d5814610045575b600080fd5b610043610063565b005b61004d6100a0565b60405161005a91906100b5565b60405180910390f35b600080815480929190610075906100da565b9190505550600a600054141561009e573373ffffffffffffffffffffffffffffffffffffffff16ff5b565b60005481565b6100af816100d0565b82525050565b60006020820190506100ca60008301846100a6565b92915050565b6000819050919050565b60006100e5826100d0565b91507fffffffffffffffffffffffffffffffffffffffffffffffffffffffffffffffff82141561011857610117610123565b5b600182019050919050565b7f4e487b7100000000000000000000000000000000000000000000000000000000600052601160045260246000fdfea26469706673582212209eafd0ef7a0298efff9f48e1bb0d86f96b50e8c3f7590adf91f3186fa021c81264736f6c63430008040033",
  "linkReferences": {},
  "deployedLinkReferences": {}
}