{
  "_format": "hh-sol-artifact-1",
  "contractName": "SumAndAverage",
  "sourceName": "contracts/contract.sol",
  "abi": [
    {
      "inputs": [
        {
          "internalType": "uint256",
          "name": "a",
          "type": "uint256"
        },
        {
          "internalType": "uint256",
          "name": "b",
          "type": "uint256"
        },
        {
          "internalType": "uint256",
          "name": "c",
          "type": "uint256"
        },
        {
          "internalType": "uint256",
          "name": "d",
          "type": "uint256"
        }
      ],
      "name": "sumAndAverage",
      "outputs": [
        {
          "internalType": "uint256",
          "name": "sum",
          "type": "uint256"
        },
        {
          "internalType": "uint256",
          "name": "average",
          "type": "uint256"
        }
      ],
      "stateMutability": "pure",
      "type": "function"
    }
  ],
  "bytecode": "0x608060405234801561001057600080fd5b5061028c806100206000396000f3fe608060405234801561001057600080fd5b506004361061002b5760003560e01c8063fb088ee914610030575b600080fd5b61004a600480360381019061004591906100b5565b610061565b604051610058929190610127565b60405180910390f35b600080828486886100729190610150565b61007c9190610150565b6100869190610150565b915060048261009591906101a6565b905094509492505050565b6000813590506100af8161023f565b92915050565b600080600080608085870312156100cb57600080fd5b60006100d9878288016100a0565b94505060206100ea878288016100a0565b93505060406100fb878288016100a0565b925050606061010c878288016100a0565b91505092959194509250565b610121816101d7565b82525050565b600060408201905061013c6000830185610118565b6101496020830184610118565b9392505050565b600061015b826101d7565b9150610166836101d7565b9250827fffffffffffffffffffffffffffffffffffffffffffffffffffffffffffffffff0382111561019b5761019a6101e1565b5b828201905092915050565b60006101b1826101d7565b91506101bc836101d7565b9250826101cc576101cb610210565b5b828204905092915050565b6000819050919050565b7f4e487b7100000000000000000000000000000000000000000000000000000000600052601160045260246000fd5b7f4e487b7100000000000000000000000000000000000000000000000000000000600052601260045260246000fd5b610248816101d7565b811461025357600080fd5b5056fea264697066735822122008e3f815acc2f5bc2396fe3d95559188bdbcb1a9112dbc26696b52bdd693100f64736f6c63430008040033",
  "linkReferences": {},
  "deployedLinkReferences": {}
}