{"contracts/contract.sol":{"SumAndAverage":{"abi":[{"inputs":[{"internalType":"uint256","name":"a","type":"uint256"},{"internalType":"uint256","name":"b","type":"uint256"},{"internalType":"uint256","name":"c","type":"uint256"},{"internalType":"uint256","name":"d","type":"uint256"}],"name":"sumAndAverage","outputs":[{"internalType":"uint256","name":"sum","type":"uint256"},{"internalType":"uint256","name":"average","type":"uint256"}],"stateMutability":"pure","type":"function"}],"evm":{"bytecode":{"linkReferences":{},"object":"608060405234801561001057600080fd5b5061028c806100206000396000f3fe608060405234801561001057600080fd5b506004361061002b5760003560e01c8063fb088ee914610030575b600080fd5b61004a600480360381019061004591906100b5565b610061565b604051610058929190610127565b60405180910390f35b600080828486886100729190610150565b61007c9190610150565b6100869190610150565b915060048261009591906101a6565b905094509492505050565b6000813590506100af8161023f565b92915050565b600080600080608085870312156100cb57600080fd5b60006100d9878288016100a0565b94505060206100ea878288016100a0565b93505060406100fb878288016100a0565b925050606061010c878288016100a0565b91505092959194509250565b610121816101d7565b82525050565b600060408201905061013c6000830185610118565b6101496020830184610118565b9392505050565b600061015b826101d7565b9150610166836101d7565b9250827fffffffffffffffffffffffffffffffffffffffffffffffffffffffffffffffff0382111561019b5761019a6101e1565b5b828201905092915050565b60006101b1826101d7565b91506101bc836101d7565b9250826101cc576101cb610210565b5b828204905092915050565b6000819050919050565b7f4e487b7100000000000000000000000000000000000000000000000000000000600052601160045260246000fd5b7f4e487b7100000000000000000000000000000000000000000000000000000000600052601260045260246000fd5b610248816101d7565b811461025357600080fd5b5056fea264697066735822122008e3f815acc2f5bc2396fe3d95559188bdbcb1a9112dbc26696b52bdd693100f64736f6c63430008040033","opcodes":"PUSH1 0x80 PUSH1 0x40 MSTORE CALLVALUE DUP1 ISZERO PUSH2 0x10 JUMPI PUSH1 0x0 DUP1 REVERT JUMPDEST POP PUSH2 0x28C DUP1 PUSH2 0x20 PUSH1 0x0 CODECOPY PUSH1 0x0 RETURN INVALID PUSH1 0x80 PUSH1 0x40 MSTORE CALLVALUE DUP1 ISZERO PUSH2 0x10 JUMPI PUSH1 0x0 DUP1 REVERT JUMPDEST POP PUSH1 0x4 CALLDATASIZE LT PUSH2 0x2B JUMPI PUSH1 0x0 CALLDATALOAD PUSH1 0xE0 SHR DUP1 PUSH4 0xFB088EE9 EQ PUSH2 0x30 JUMPI JUMPDEST PUSH1 0x0 DUP1 REVERT JUMPDEST PUSH2 0x4A PUSH1 0x4 DUP1 CALLDATASIZE SUB DUP2 ADD SWAP1 PUSH2 0x45 SWAP2 SWAP1 PUSH2 0xB5 JUMP JUMPDEST PUSH2 0x61 JUMP JUMPDEST PUSH1 0x40 MLOAD PUSH2 0x58 SWAP3 SWAP2 SWAP1 PUSH2 0x127 JUMP JUMPDEST PUSH1 0x40 MLOAD DUP1 SWAP2 SUB SWAP1 RETURN JUMPDEST PUSH1 0x0 DUP1 DUP3 DUP5 DUP7 DUP9 PUSH2 0x72 SWAP2 SWAP1 PUSH2 0x150 JUMP JUMPDEST PUSH2 0x7C SWAP2 SWAP1 PUSH2 0x150 JUMP JUMPDEST PUSH2 0x86 SWAP2 SWAP1 PUSH2 0x150 JUMP JUMPDEST SWAP2 POP PUSH1 0x4 DUP3 PUSH2 0x95 SWAP2 SWAP1 PUSH2 0x1A6 JUMP JUMPDEST SWAP1 POP SWAP5 POP SWAP5 SWAP3 POP POP POP JUMP JUMPDEST PUSH1 0x0 DUP2 CALLDATALOAD SWAP1 POP PUSH2 0xAF DUP2 PUSH2 0x23F JUMP JUMPDEST SWAP3 SWAP2 POP POP JUMP JUMPDEST PUSH1 0x0 DUP1 PUSH1 0x0 DUP1 PUSH1 0x80 DUP6 DUP8 SUB SLT ISZERO PUSH2 0xCB JUMPI PUSH1 0x0 DUP1 REVERT JUMPDEST PUSH1 0x0 PUSH2 0xD9 DUP8 DUP3 DUP9 ADD PUSH2 0xA0 JUMP JUMPDEST SWAP5 POP POP PUSH1 0x20 PUSH2 0xEA DUP8 DUP3 DUP9 ADD PUSH2 0xA0 JUMP JUMPDEST SWAP4 POP POP PUSH1 0x40 PUSH2 0xFB DUP8 DUP3 DUP9 ADD PUSH2 0xA0 JUMP JUMPDEST SWAP3 POP POP PUSH1 0x60 PUSH2 0x10C DUP8 DUP3 DUP9 ADD PUSH2 0xA0 JUMP JUMPDEST SWAP2 POP POP SWAP3 SWAP6 SWAP2 SWAP5 POP SWAP3 POP JUMP JUMPDEST PUSH2 0x121 DUP2 PUSH2 0x1D7 JUMP JUMPDEST DUP3 MSTORE POP POP JUMP JUMPDEST PUSH1 0x0 PUSH1 0x40 DUP3 ADD SWAP1 POP PUSH2 0x13C PUSH1 0x0 DUP4 ADD DUP6 PUSH2 0x118 JUMP JUMPDEST PUSH2 0x149 PUSH1 0x20 DUP4 ADD DUP5 PUSH2 0x118 JUMP JUMPDEST SWAP4 SWAP3 POP POP POP JUMP JUMPDEST PUSH1 0x0 PUSH2 0x15B DUP3 PUSH2 0x1D7 JUMP JUMPDEST SWAP2 POP PUSH2 0x166 DUP4 PUSH2 0x1D7 JUMP JUMPDEST SWAP3 POP DUP3 PUSH32 0xFFFFFFFFFFFFFFFFFFFFFFFFFFFFFFFFFFFFFFFFFFFFFFFFFFFFFFFFFFFFFFFF SUB DUP3 GT ISZERO PUSH2 0x19B JUMPI PUSH2 0x19A PUSH2 0x1E1 JUMP JUMPDEST JUMPDEST DUP3 DUP3 ADD SWAP1 POP SWAP3 SWAP2 POP POP JUMP JUMPDEST PUSH1 0x0 PUSH2 0x1B1 DUP3 PUSH2 0x1D7 JUMP JUMPDEST SWAP2 POP PUSH2 0x1BC DUP4 PUSH2 0x1D7 JUMP JUMPDEST SWAP3 POP DUP3 PUSH2 0x1CC JUMPI PUSH2 0x1CB PUSH2 0x210 JUMP JUMPDEST JUMPDEST DUP3 DUP3 DIV SWAP1 POP SWAP3 SWAP2 POP POP JUMP JUMPDEST PUSH1 0x0 DUP2 SWAP1 POP SWAP2 SWAP1 POP JUMP JUMPDEST PUSH32 0x4E487B7100000000000000000000000000000000000000000000000000000000 PUSH1 0x0 MSTORE PUSH1 0x11 PUSH1 0x4 MSTORE PUSH1 0x24 PUSH1 0x0 REVERT JUMPDEST PUSH32 0x4E487B7100000000000000000000000000000000000000000000000000000000 PUSH1 0x0 MSTORE PUSH1 0x12 PUSH1 0x4 MSTORE PUSH1 0x24 PUSH1 0x0 REVERT JUMPDEST PUSH2 0x248 DUP2 PUSH2 0x1D7 JUMP JUMPDEST DUP2 EQ PUSH2 0x253 JUMPI PUSH1 0x0 DUP1 REVERT JUMPDEST POP JUMP INVALID LOG2 PUSH5 0x6970667358 0x22 SLT KECCAK256 ADDMOD 0xE3 0xF8 ISZERO 0xAC 0xC2 CREATE2 0xBC 0x23 SWAP7 INVALID RETURNDATASIZE SWAP6 SSTORE SWAP2 DUP9 0xBD 0xBC 0xB1 0xA9 GT 0x2D 0xBC 0x26 PUSH10 0x6B52BDD693100F64736F PUSH13 0x63430008040033000000000000 "},"methodIdentifiers":{"sumAndAverage(uint256,uint256,uint256,uint256)":"fb088ee9"}}}}}