{
  "_format": "hh-sol-artifact-1",
  "contractName": "ContractModifier",
  "sourceName": "contracts/Contract.sol",
  "abi": [
    {
      "inputs": [],
      "stateMutability": "nonpayable",
      "type": "constructor"
    },
    {
      "inputs": [
        {
          "internalType": "uint256",
          "name": "_configA",
          "type": "uint256"
        }
      ],
      "name": "setA",
      "outputs": [],
      "stateMutability": "nonpayable",
      "type": "function"
    },
    {
      "inputs": [
        {
          "internalType": "uint256",
          "name": "_configB",
          "type": "uint256"
        }
      ],
      "name": "setB",
      "outputs": [],
      "stateMutability": "nonpayable",
      "type": "function"
    },
    {
      "inputs": [
        {
          "internalType": "uint256",
          "name": "_configC",
          "type": "uint256"
        }
      ],
      "name": "setC",
      "outputs": [],
      "stateMutability": "nonpayable",
      "type": "function"
    }
  ],
  "bytecode": "0x608060405234801561001057600080fd5b50336000806101000a81548173ffffffffffffffffffffffffffffffffffffffff021916908373ffffffffffffffffffffffffffffffffffffffff160217905550610255806100606000396000f3fe608060405234801561001057600080fd5b50600436106100415760003560e01c806309cdcf9b14610046578063ee919d5014610062578063eeb4914e1461007e575b600080fd5b610060600480360381019061005b91906101d5565b61009a565b005b61007c600480360381019061007791906101d5565b6100fc565b005b610098600480360381019061009391906101d5565b61015e565b005b60008054906101000a900473ffffffffffffffffffffffffffffffffffffffff1673ffffffffffffffffffffffffffffffffffffffff163373ffffffffffffffffffffffffffffffffffffffff16146100f257600080fd5b8060028190555050565b60008054906101000a900473ffffffffffffffffffffffffffffffffffffffff1673ffffffffffffffffffffffffffffffffffffffff163373ffffffffffffffffffffffffffffffffffffffff161461015457600080fd5b8060018190555050565b60008054906101000a900473ffffffffffffffffffffffffffffffffffffffff1673ffffffffffffffffffffffffffffffffffffffff163373ffffffffffffffffffffffffffffffffffffffff16146101b657600080fd5b8060038190555050565b6000813590506101cf81610208565b92915050565b6000602082840312156101e757600080fd5b60006101f5848285016101c0565b91505092915050565b6000819050919050565b610211816101fe565b811461021c57600080fd5b5056fea2646970667358221220ac23440a5ea8f82d83cb189ebdaced82b7753f7a60c2c7f7373d6a5c4dc8081c64736f6c63430008040033",
  "linkReferences": {},
  "deployedLinkReferences": {}
}