{
  "_format": "hh-sol-artifact-1",
  "contractName": "Contract",
  "sourceName": "contracts/Contract.sol",
  "abi": [
    {
      "inputs": [],
      "stateMutability": "payable",
      "type": "constructor"
    },
    {
      "inputs": [],
      "name": "NotOwner",
      "type": "error"
    },
    {
      "inputs": [],
      "name": "owner",
      "outputs": [
        {
          "internalType": "address",
          "name": "",
          "type": "address"
        }
      ],
      "stateMutability": "view",
      "type": "function"
    },
    {
      "inputs": [],
      "name": "withdraw",
      "outputs": [],
      "stateMutability": "nonpayable",
      "type": "function"
    }
  ],
  "bytecode": "0x6080604052670de0b6b3a764000034101561004f576040517f08c379a0000000000000000000000000000000000000000000000000000000008152600401610046906100b7565b60405180910390fd5b336000806101000a81548173ffffffffffffffffffffffffffffffffffffffff021916908373ffffffffffffffffffffffffffffffffffffffff160217905550610137565b60006100a16024836100d7565b91506100ac826100e8565b604082019050919050565b600060208201905081810360008301526100d081610094565b9050919050565b600082825260208201905092915050565b7f526571756972652061204d696e696d756d206f6620312045746865722044657060008201527f6f73697400000000000000000000000000000000000000000000000000000000602082015250565b61027e806101466000396000f3fe608060405234801561001057600080fd5b50600436106100365760003560e01c80633ccfd60b1461003b5780638da5cb5b14610045575b600080fd5b610043610063565b005b61004d610182565b60405161005a91906101ed565b60405180910390f35b60008054906101000a900473ffffffffffffffffffffffffffffffffffffffff1673ffffffffffffffffffffffffffffffffffffffff163373ffffffffffffffffffffffffffffffffffffffff16146100e8576040517f30cd747100000000000000000000000000000000000000000000000000000000815260040160405180910390fd5b60008060009054906101000a900473ffffffffffffffffffffffffffffffffffffffff1673ffffffffffffffffffffffffffffffffffffffff164760405161012f906101d8565b60006040518083038185875af1925050503d806000811461016c576040519150601f19603f3d011682016040523d82523d6000602084013e610171565b606091505b505090508061017f57600080fd5b50565b60008054906101000a900473ffffffffffffffffffffffffffffffffffffffff1681565b6101af81610213565b82525050565b60006101c2600083610208565b91506101cd82610245565b600082019050919050565b60006101e3826101b5565b9150819050919050565b600060208201905061020260008301846101a6565b92915050565b600081905092915050565b600061021e82610225565b9050919050565b600073ffffffffffffffffffffffffffffffffffffffff82169050919050565b5056fea26469706673582212203ee7f679e98b647730183cff4c9f82a52fc0370455c6492954961fcb9163cefe64736f6c63430008040033",
  "linkReferences": {},
  "deployedLinkReferences": {}
}