{
  "_format": "hh-sol-artifact-1",
  "contractName": "HeroSig",
  "sourceName": "contracts/Hero.sol",
  "abi": [
    {
      "stateMutability": "nonpayable",
      "type": "fallback"
    },
    {
      "inputs": [
        {
          "internalType": "uint256",
          "name": "enemies",
          "type": "uint256"
        },
        {
          "internalType": "bool",
          "name": "armed",
          "type": "bool"
        }
      ],
      "name": "alert",
      "outputs": [],
      "stateMutability": "nonpayable",
      "type": "function"
    },
    {
      "inputs": [],
      "name": "ambush",
      "outputs": [
        {
          "internalType": "bool",
          "name": "alerted",
          "type": "bool"
        },
        {
          "internalType": "uint256",
          "name": "enemies",
          "type": "uint256"
        },
        {
          "internalType": "bool",
          "name": "armed",
          "type": "bool"
        }
      ],
      "stateMutability": "view",
      "type": "function"
    },
    {
      "inputs": [],
      "name": "lastContact",
      "outputs": [
        {
          "internalType": "uint256",
          "name": "",
          "type": "uint256"
        }
      ],
      "stateMutability": "view",
      "type": "function"
    }
  ],
  "bytecode": "0x608060405234801561001057600080fd5b506102a3806100206000396000f3fe608060405234801561001057600080fd5b50600436106100455760003560e01c80635165c5461461004f57806389434ea71461006d578063f59763e61461008957610046565b5b42600381905550005b6100576100a9565b604051610064919061020e565b60405180910390f35b6100876004803603810190610082919061017d565b6100af565b005b610091610121565b6040516100a0939291906101d7565b60405180910390f35b60035481565b60405180606001604052806001151581526020018381526020018215158152506000808201518160000160006101000a81548160ff0219169083151502179055506020820151816001015560408201518160020160006101000a81548160ff0219169083151502179055509050505050565b60008060000160009054906101000a900460ff16908060010154908060020160009054906101000a900460ff16905083565b6000813590506101628161023f565b92915050565b60008135905061017781610256565b92915050565b6000806040838503121561019057600080fd5b600061019e85828601610168565b92505060206101af85828601610153565b9150509250929050565b6101c281610229565b82525050565b6101d181610235565b82525050565b60006060820190506101ec60008301866101b9565b6101f960208301856101c8565b61020660408301846101b9565b949350505050565b600060208201905061022360008301846101c8565b92915050565b60008115159050919050565b6000819050919050565b61024881610229565b811461025357600080fd5b50565b61025f81610235565b811461026a57600080fd5b5056fea2646970667358221220d31382d2ee80388a8a4dc23a7ac905df4493db80d309a58f7f075693ac674a2064736f6c63430008040033",
  "linkReferences": {},
  "deployedLinkReferences": {}
}