{
  "_format": "hh-sol-artifact-1",
  "contractName": "Hero",
  "sourceName": "contracts/Hero.sol",
  "abi": [
    {
      "inputs": [],
      "name": "alert",
      "outputs": [],
      "stateMutability": "nonpayable",
      "type": "function"
    },
    {
      "inputs": [],
      "name": "alerted",
      "outputs": [
        {
          "internalType": "bool",
          "name": "",
          "type": "bool"
        }
      ],
      "stateMutability": "view",
      "type": "function"
    }
  ],
  "bytecode": "0x608060405234801561001057600080fd5b5060ee8061001f6000396000f3fe6080604052348015600f57600080fd5b506004361060325760003560e01c8063410b45a514603757806376d66fdb146051575b600080fd5b603d6059565b604051604891906093565b60405180910390f35b6057606a565b005b60008054906101000a900460ff1681565b60016000806101000a81548160ff021916908315150217905550565b608d8160ac565b82525050565b600060208201905060a660008301846086565b92915050565b6000811515905091905056fea2646970667358221220d343af0f0ce59d64da663b7098c3020dee34173b74cb3960f27d5313358e3cca64736f6c63430008040033",
  "linkReferences": {},
  "deployedLinkReferences": {}
}