{
  "_format": "hh-sol-artifact-1",
  "contractName": "SidekickSig",
  "sourceName": "contracts/Sidekick.sol",
  "abi": [
    {
      "inputs": [
        {
          "internalType": "address",
          "name": "hero",
          "type": "address"
        },
        {
          "internalType": "uint256",
          "name": "enemies",
          "type": "uint256"
        },
        {
          "internalType": "bool",
          "name": "armed",
          "type": "bool"
        }
      ],
      "name": "sendAlert",
      "outputs": [],
      "stateMutability": "nonpayable",
      "type": "function"
    }
  ],
  "bytecode": "0x608060405234801561001057600080fd5b50610381806100206000396000f3fe608060405234801561001057600080fd5b506004361061002b5760003560e01c80634abe264a14610030575b600080fd5b61004a60048036038101906100459190610197565b61004c565b005b60008373ffffffffffffffffffffffffffffffffffffffff16838360405160240161007892919061024c565b6040516020818303038152906040527f89434ea7000000000000000000000000000000000000000000000000000000007bffffffffffffffffffffffffffffffffffffffffffffffffffffffff19166020820180517bffffffffffffffffffffffffffffffffffffffffffffffffffffffff83818316178352505050506040516101029190610235565b6000604051808303816000865af19150503d806000811461013f576040519150601f19603f3d011682016040523d82523d6000602084013e610144565b606091505b505090508061015257600080fd5b50505050565b60008135905061016781610306565b92915050565b60008135905061017c8161031d565b92915050565b60008135905061019181610334565b92915050565b6000806000606084860312156101ac57600080fd5b60006101ba86828701610158565b93505060206101cb86828701610182565b92505060406101dc8682870161016d565b9150509250925092565b6101ef8161029d565b82525050565b600061020082610275565b61020a8185610280565b935061021a8185602086016102d3565b80840191505092915050565b61022f816102c9565b82525050565b600061024182846101f5565b915081905092915050565b60006040820190506102616000830185610226565b61026e60208301846101e6565b9392505050565b600081519050919050565b600081905092915050565b6000610296826102a9565b9050919050565b60008115159050919050565b600073ffffffffffffffffffffffffffffffffffffffff82169050919050565b6000819050919050565b60005b838110156102f15780820151818401526020810190506102d6565b83811115610300576000848401525b50505050565b61030f8161028b565b811461031a57600080fd5b50565b6103268161029d565b811461033157600080fd5b50565b61033d816102c9565b811461034857600080fd5b5056fea26469706673582212204efeeaf134a094cdd866b89279e2ed91570aa6d17306626978119d54c83b133564736f6c63430008040033",
  "linkReferences": {},
  "deployedLinkReferences": {}
}