{
  "_format": "hh-sol-artifact-1",
  "contractName": "SidekickManual",
  "sourceName": "contracts/Sidekick.sol",
  "abi": [
    {
      "inputs": [
        {
          "internalType": "address",
          "name": "hero",
          "type": "address"
        }
      ],
      "name": "sendAlert",
      "outputs": [],
      "stateMutability": "nonpayable",
      "type": "function"
    }
  ],
  "bytecode": "0x608060405234801561001057600080fd5b506102c2806100206000396000f3fe608060405234801561001057600080fd5b506004361061002b5760003560e01c8063c53a4fee14610030575b600080fd5b61004a60048036038101906100459190610121565b61004c565b005b60007f76d66fdbed6b58222bf77507e2437e48afab36b3722f2af58539ebbc5ba68542905060008273ffffffffffffffffffffffffffffffffffffffff168260405160200161009b9190610192565b6040516020818303038152906040526040516100b791906101ad565b6000604051808303816000865af19150503d80600081146100f4576040519150601f19603f3d011682016040523d82523d6000602084013e6100f9565b606091505b505090508061010757600080fd5b505050565b60008135905061011b81610275565b92915050565b60006020828403121561013357600080fd5b60006101418482850161010c565b91505092915050565b61015b610156826101ec565b61026b565b82525050565b600061016c826101c4565b61017681856101cf565b9350610186818560208601610238565b80840191505092915050565b600061019e828461014a565b60048201915081905092915050565b60006101b98284610161565b915081905092915050565b600081519050919050565b600081905092915050565b60006101e582610218565b9050919050565b60007fffffffff0000000000000000000000000000000000000000000000000000000082169050919050565b600073ffffffffffffffffffffffffffffffffffffffff82169050919050565b60005b8381101561025657808201518184015260208101905061023b565b83811115610265576000848401525b50505050565b6000819050919050565b61027e816101da565b811461028957600080fd5b5056fea26469706673582212201fbce50167f0b72a2732d23ad60f5e2b8255264ed07977d0eaea88efc3b2fb4d64736f6c63430008040033",
  "linkReferences": {},
  "deployedLinkReferences": {}
}