{
  "_format": "hh-sol-artifact-1",
  "contractName": "SidekickInterface",
  "sourceName": "contracts/Sidekick.sol",
  "abi": [
    {
      "inputs": [
        {
          "internalType": "address",
          "name": "hero",
          "type": "address"
        }
      ],
      "name": "sendAlert",
      "outputs": [],
      "stateMutability": "nonpayable",
      "type": "function"
    }
  ],
  "bytecode": "0x608060405234801561001057600080fd5b5061016c806100206000396000f3fe608060405234801561001057600080fd5b506004361061002b5760003560e01c8063c53a4fee14610030575b600080fd5b61004a600480360381019061004591906100c4565b61004c565b005b8073ffffffffffffffffffffffffffffffffffffffff166376d66fdb6040518163ffffffff1660e01b8152600401600060405180830381600087803b15801561009457600080fd5b505af11580156100a8573d6000803e3d6000fd5b5050505050565b6000813590506100be8161011f565b92915050565b6000602082840312156100d657600080fd5b60006100e4848285016100af565b91505092915050565b60006100f8826100ff565b9050919050565b600073ffffffffffffffffffffffffffffffffffffffff82169050919050565b610128816100ed565b811461013357600080fd5b5056fea2646970667358221220b35de7f4faa92e807128d2264411a66b8beffd1b86de1d9dd89080aab94e2fbf64736f6c63430008040033",
  "linkReferences": {},
  "deployedLinkReferences": {}
}