{
  "_format": "hh-sol-artifact-1",
  "contractName": "SidekickFallback",
  "sourceName": "contracts/Sidekick.sol",
  "abi": [
    {
      "inputs": [
        {
          "internalType": "address",
          "name": "hero",
          "type": "address"
        }
      ],
      "name": "makeContact",
      "outputs": [],
      "stateMutability": "nonpayable",
      "type": "function"
    }
  ],
  "bytecode": "0x608060405234801561001057600080fd5b506102ec806100206000396000f3fe608060405234801561001057600080fd5b506004361061002b5760003560e01c8063a3ba5e7a14610030575b600080fd5b61004a6004803603810190610045919061016a565b61004c565b005b60008173ffffffffffffffffffffffffffffffffffffffff16600760405160240161007791906101ea565b6040516020818303038152906040527ff17b7b0f000000000000000000000000000000000000000000000000000000007bffffffffffffffffffffffffffffffffffffffffffffffffffffffff19166020820180517bffffffffffffffffffffffffffffffffffffffffffffffffffffffff838183161783525050505060405161010191906101d3565b6000604051808303816000865af19150503d806000811461013e576040519150601f19603f3d011682016040523d82523d6000602084013e610143565b606091505b505090508061015157600080fd5b5050565b6000813590506101648161029f565b92915050565b60006020828403121561017c57600080fd5b600061018a84828501610155565b91505092915050565b600061019e82610205565b6101a88185610210565b93506101b881856020860161026c565b80840191505092915050565b6101cd8161025a565b82525050565b60006101df8284610193565b915081905092915050565b60006020820190506101ff60008301846101c4565b92915050565b600081519050919050565b600081905092915050565b60006102268261022d565b9050919050565b600073ffffffffffffffffffffffffffffffffffffffff82169050919050565b600060ff82169050919050565b60006102658261024d565b9050919050565b60005b8381101561028a57808201518184015260208101905061026f565b83811115610299576000848401525b50505050565b6102a88161021b565b81146102b357600080fd5b5056fea264697066735822122089e763b0a58497a2b3192c96664f8a5dbb6a44a7daad90b96c9d8f07073503ec64736f6c63430008040033",
  "linkReferences": {},
  "deployedLinkReferences": {}
}