{
  "_format": "hh-sol-artifact-1",
  "contractName": "SidekickRelay",
  "sourceName": "contracts/Sidekick.sol",
  "abi": [
    {
      "inputs": [
        {
          "internalType": "address",
          "name": "hero",
          "type": "address"
        },
        {
          "internalType": "bytes",
          "name": "data",
          "type": "bytes"
        }
      ],
      "name": "relay",
      "outputs": [],
      "stateMutability": "nonpayable",
      "type": "function"
    }
  ],
  "bytecode": "0x608060405234801561001057600080fd5b5061037f806100206000396000f3fe608060405234801561001057600080fd5b506004361061002b5760003560e01c8063c28e83fd14610030575b600080fd5b61004a60048036038101906100459190610145565b61004c565b005b60008273ffffffffffffffffffffffffffffffffffffffff168260405161007391906101ca565b6000604051808303816000865af19150503d80600081146100b0576040519150601f19603f3d011682016040523d82523d6000602084013e6100b5565b606091505b50509050806100c357600080fd5b505050565b60006100db6100d684610206565b6101e1565b9050828152602081018484840111156100f357600080fd5b6100fe84828561027f565b509392505050565b60008135905061011581610332565b92915050565b600082601f83011261012c57600080fd5b813561013c8482602086016100c8565b91505092915050565b6000806040838503121561015857600080fd5b600061016685828601610106565b925050602083013567ffffffffffffffff81111561018357600080fd5b61018f8582860161011b565b9150509250929050565b60006101a482610237565b6101ae8185610242565b93506101be81856020860161028e565b80840191505092915050565b60006101d68284610199565b915081905092915050565b60006101eb6101fc565b90506101f782826102c1565b919050565b6000604051905090565b600067ffffffffffffffff821115610221576102206102f2565b5b61022a82610321565b9050602081019050919050565b600081519050919050565b600081905092915050565b60006102588261025f565b9050919050565b600073ffffffffffffffffffffffffffffffffffffffff82169050919050565b82818337600083830152505050565b60005b838110156102ac578082015181840152602081019050610291565b838111156102bb576000848401525b50505050565b6102ca82610321565b810181811067ffffffffffffffff821117156102e9576102e86102f2565b5b80604052505050565b7f4e487b7100000000000000000000000000000000000000000000000000000000600052604160045260246000fd5b6000601f19601f8301169050919050565b61033b8161024d565b811461034657600080fd5b5056fea2646970667358221220b575b31a778f40e7d2ca431409b73972b6d0e420e1b5592fee16c3659127549964736f6c63430008040033",
  "linkReferences": {},
  "deployedLinkReferences": {}
}